{
  "_format": "hh3-artifact-1",
  "contractName": "BookNFT",
  "sourceName": "contracts/BookNFT.sol",
  "abi": [
    {
      "inputs": [],
      "stateMutability": "nonpayable",
      "type": "constructor"
    },
    {
      "inputs": [
        {
          "internalType": "address",
          "name": "sender",
          "type": "address"
        },
        {
          "internalType": "uint256",
          "name": "tokenId",
          "type": "uint256"
        },
        {
          "internalType": "address",
          "name": "owner",
          "type": "address"
        }
      ],
      "name": "ERC721IncorrectOwner",
      "type": "error"
    },
    {
      "inputs": [
        {
          "internalType": "address",
          "name": "operator",
          "type": "address"
        },
        {
          "internalType": "uint256",
          "name": "tokenId",
          "type": "uint256"
        }
      ],
      "name": "ERC721InsufficientApproval",
      "type": "error"
    },
    {
      "inputs": [
        {
          "internalType": "address",
          "name": "approver",
          "type": "address"
        }
      ],
      "name": "ERC721InvalidApprover",
      "type": "error"
    },
    {
      "inputs": [
        {
          "internalType": "address",
          "name": "operator",
          "type": "address"
        }
      ],
      "name": "ERC721InvalidOperator",
      "type": "error"
    },
    {
      "inputs": [
        {
          "internalType": "address",
          "name": "owner",
          "type": "address"
        }
      ],
      "name": "ERC721InvalidOwner",
      "type": "error"
    },
    {
      "inputs": [
        {
          "internalType": "address",
          "name": "receiver",
          "type": "address"
        }
      ],
      "name": "ERC721InvalidReceiver",
      "type": "error"
    },
    {
      "inputs": [
        {
          "internalType": "address",
          "name": "sender",
          "type": "address"
        }
      ],
      "name": "ERC721InvalidSender",
      "type": "error"
    },
    {
      "inputs": [
        {
          "internalType": "uint256",
          "name": "tokenId",
          "type": "uint256"
        }
      ],
      "name": "ERC721NonexistentToken",
      "type": "error"
    },
    {
      "inputs": [
        {
          "internalType": "address",
          "name": "owner",
          "type": "address"
        }
      ],
      "name": "OwnableInvalidOwner",
      "type": "error"
    },
    {
      "inputs": [
        {
          "internalType": "address",
          "name": "account",
          "type": "address"
        }
      ],
      "name": "OwnableUnauthorizedAccount",
      "type": "error"
    },
    {
      "anonymous": false,
      "inputs": [
        {
          "indexed": true,
          "internalType": "address",
          "name": "owner",
          "type": "address"
        },
        {
          "indexed": true,
          "internalType": "address",
          "name": "approved",
          "type": "address"
        },
        {
          "indexed": true,
          "internalType": "uint256",
          "name": "tokenId",
          "type": "uint256"
        }
      ],
      "name": "Approval",
      "type": "event"
    },
    {
      "anonymous": false,
      "inputs": [
        {
          "indexed": true,
          "internalType": "address",
          "name": "owner",
          "type": "address"
        },
        {
          "indexed": true,
          "internalType": "address",
          "name": "operator",
          "type": "address"
        },
        {
          "indexed": false,
          "internalType": "bool",
          "name": "approved",
          "type": "bool"
        }
      ],
      "name": "ApprovalForAll",
      "type": "event"
    },
    {
      "anonymous": false,
      "inputs": [
        {
          "indexed": true,
          "internalType": "uint256",
          "name": "tokenId",
          "type": "uint256"
        },
        {
          "indexed": true,
          "internalType": "address",
          "name": "author",
          "type": "address"
        },
        {
          "indexed": false,
          "internalType": "string",
          "name": "metadataURI",
          "type": "string"
        }
      ],
      "name": "BookMinted",
      "type": "event"
    },
    {
      "anonymous": false,
      "inputs": [
        {
          "indexed": true,
          "internalType": "address",
          "name": "previousOwner",
          "type": "address"
        },
        {
          "indexed": true,
          "internalType": "address",
          "name": "newOwner",
          "type": "address"
        }
      ],
      "name": "OwnershipTransferred",
      "type": "event"
    },
    {
      "anonymous": false,
      "inputs": [
        {
          "indexed": true,
          "internalType": "address",
          "name": "from",
          "type": "address"
        },
        {
          "indexed": true,
          "internalType": "address",
          "name": "to",
          "type": "address"
        },
        {
          "indexed": true,
          "internalType": "uint256",
          "name": "tokenId",
          "type": "uint256"
        }
      ],
      "name": "Transfer",
      "type": "event"
    },
    {
      "inputs": [
        {
          "internalType": "address",
          "name": "to",
          "type": "address"
        },
        {
          "internalType": "uint256",
          "name": "tokenId",
          "type": "uint256"
        }
      ],
      "name": "approve",
      "outputs": [],
      "stateMutability": "nonpayable",
      "type": "function"
    },
    {
      "inputs": [
        {
          "internalType": "address",
          "name": "owner",
          "type": "address"
        }
      ],
      "name": "balanceOf",
      "outputs": [
        {
          "internalType": "uint256",
          "name": "",
          "type": "uint256"
        }
      ],
      "stateMutability": "view",
      "type": "function"
    },
    {
      "inputs": [
        {
          "internalType": "uint256",
          "name": "tokenId",
          "type": "uint256"
        }
      ],
      "name": "getApproved",
      "outputs": [
        {
          "internalType": "address",
          "name": "",
          "type": "address"
        }
      ],
      "stateMutability": "view",
      "type": "function"
    },
    {
      "inputs": [
        {
          "internalType": "address",
          "name": "user",
          "type": "address"
        }
      ],
      "name": "getBooksByOwner",
      "outputs": [
        {
          "internalType": "uint256[]",
          "name": "",
          "type": "uint256[]"
        }
      ],
      "stateMutability": "view",
      "type": "function"
    },
    {
      "inputs": [
        {
          "internalType": "address",
          "name": "owner",
          "type": "address"
        },
        {
          "internalType": "address",
          "name": "operator",
          "type": "address"
        }
      ],
      "name": "isApprovedForAll",
      "outputs": [
        {
          "internalType": "bool",
          "name": "",
          "type": "bool"
        }
      ],
      "stateMutability": "view",
      "type": "function"
    },
    {
      "inputs": [
        {
          "internalType": "address",
          "name": "author",
          "type": "address"
        },
        {
          "internalType": "string",
          "name": "metadataURI",
          "type": "string"
        }
      ],
      "name": "mintBook",
      "outputs": [],
      "stateMutability": "nonpayable",
      "type": "function"
    },
    {
      "inputs": [],
      "name": "name",
      "outputs": [
        {
          "internalType": "string",
          "name": "",
          "type": "string"
        }
      ],
      "stateMutability": "view",
      "type": "function"
    },
    {
      "inputs": [],
      "name": "nextTokenId",
      "outputs": [
        {
          "internalType": "uint256",
          "name": "",
          "type": "uint256"
        }
      ],
      "stateMutability": "view",
      "type": "function"
    },
    {
      "inputs": [],
      "name": "owner",
      "outputs": [
        {
          "internalType": "address",
          "name": "",
          "type": "address"
        }
      ],
      "stateMutability": "view",
      "type": "function"
    },
    {
      "inputs": [
        {
          "internalType": "uint256",
          "name": "tokenId",
          "type": "uint256"
        }
      ],
      "name": "ownerOf",
      "outputs": [
        {
          "internalType": "address",
          "name": "",
          "type": "address"
        }
      ],
      "stateMutability": "view",
      "type": "function"
    },
    {
      "inputs": [],
      "name": "renounceOwnership",
      "outputs": [],
      "stateMutability": "nonpayable",
      "type": "function"
    },
    {
      "inputs": [
        {
          "internalType": "address",
          "name": "from",
          "type": "address"
        },
        {
          "internalType": "address",
          "name": "to",
          "type": "address"
        },
        {
          "internalType": "uint256",
          "name": "tokenId",
          "type": "uint256"
        }
      ],
      "name": "safeTransferFrom",
      "outputs": [],
      "stateMutability": "nonpayable",
      "type": "function"
    },
    {
      "inputs": [
        {
          "internalType": "address",
          "name": "from",
          "type": "address"
        },
        {
          "internalType": "address",
          "name": "to",
          "type": "address"
        },
        {
          "internalType": "uint256",
          "name": "tokenId",
          "type": "uint256"
        },
        {
          "internalType": "bytes",
          "name": "data",
          "type": "bytes"
        }
      ],
      "name": "safeTransferFrom",
      "outputs": [],
      "stateMutability": "nonpayable",
      "type": "function"
    },
    {
      "inputs": [
        {
          "internalType": "address",
          "name": "operator",
          "type": "address"
        },
        {
          "internalType": "bool",
          "name": "approved",
          "type": "bool"
        }
      ],
      "name": "setApprovalForAll",
      "outputs": [],
      "stateMutability": "nonpayable",
      "type": "function"
    },
    {
      "inputs": [
        {
          "internalType": "bytes4",
          "name": "interfaceId",
          "type": "bytes4"
        }
      ],
      "name": "supportsInterface",
      "outputs": [
        {
          "internalType": "bool",
          "name": "",
          "type": "bool"
        }
      ],
      "stateMutability": "view",
      "type": "function"
    },
    {
      "inputs": [],
      "name": "symbol",
      "outputs": [
        {
          "internalType": "string",
          "name": "",
          "type": "string"
        }
      ],
      "stateMutability": "view",
      "type": "function"
    },
    {
      "inputs": [
        {
          "internalType": "uint256",
          "name": "tokenId",
          "type": "uint256"
        }
      ],
      "name": "tokenURI",
      "outputs": [
        {
          "internalType": "string",
          "name": "",
          "type": "string"
        }
      ],
      "stateMutability": "view",
      "type": "function"
    },
    {
      "inputs": [
        {
          "internalType": "address",
          "name": "from",
          "type": "address"
        },
        {
          "internalType": "address",
          "name": "to",
          "type": "address"
        },
        {
          "internalType": "uint256",
          "name": "tokenId",
          "type": "uint256"
        }
      ],
      "name": "transferFrom",
      "outputs": [],
      "stateMutability": "nonpayable",
      "type": "function"
    },
    {
      "inputs": [
        {
          "internalType": "address",
          "name": "newOwner",
          "type": "address"
        }
      ],
      "name": "transferOwnership",
      "outputs": [],
      "stateMutability": "nonpayable",
      "type": "function"
    }
  ],
  "bytecode": "0x608060405234801561000f575f5ffd5b503360405180604001604052806007815260200166109bdbdad3919560ca1b81525060405180604001604052806004815260200163424f4f4b60e01b815250815f908161005c9190610191565b5060016100698282610191565b5050506001600160a01b03811661009957604051631e4fbdf760e01b81525f600482015260240160405180910390fd5b6100a2816100a8565b5061024b565b600680546001600160a01b038381166001600160a01b0319831681179093556040519116919082907f8be0079c531659141344cd1fd0a4f28419497f9722a3daafe3b4186f6b6457e0905f90a35050565b634e487b7160e01b5f52604160045260245ffd5b600181811c9082168061012157607f821691505b60208210810361013f57634e487b7160e01b5f52602260045260245ffd5b50919050565b601f82111561018c57805f5260205f20601f840160051c8101602085101561016a5750805b601f840160051c820191505b81811015610189575f8155600101610176565b50505b505050565b81516001600160401b038111156101aa576101aa6100f9565b6101be816101b8845461010d565b84610145565b6020601f8211600181146101f0575f83156101d95750848201515b5f19600385901b1c1916600184901b178455610189565b5f84815260208120601f198516915b8281101561021f57878501518255602094850194600190920191016101ff565b508482101561023c57868401515f19600387901b60f8161c191681555b50505050600190811b01905550565b61134e806102585f395ff3fe608060405234801561000f575f5ffd5b506004361061011c575f3560e01c806370a08231116100a9578063a22cb4651161006e578063a22cb46514610254578063b88d4fde14610267578063c87b56dd1461027a578063e985e9c51461028d578063f2fde38b146102a0575f5ffd5b806370a0823114610209578063715018a61461022a57806375794a3c146102325780638da5cb5b1461023b57806395d89b411461024c575f5ffd5b806323b872dd116100ef57806323b872dd1461019d57806335a69bfe146101b057806342842e0e146101c35780635ff47114146101d65780636352211e146101f6575f5ffd5b806301ffc9a71461012057806306fdde0314610148578063081812fc1461015d578063095ea7b314610188575b5f5ffd5b61013361012e366004610e18565b6102b3565b60405190151581526020015b60405180910390f35b610150610304565b60405161013f9190610e68565b61017061016b366004610e7a565b610393565b6040516001600160a01b03909116815260200161013f565b61019b610196366004610ea5565b6103ba565b005b61019b6101ab366004610ecf565b6103c9565b61019b6101be366004610f98565b610457565b61019b6101d1366004610ecf565b61053b565b6101e96101e4366004610ff8565b61055a565b60405161013f9190611013565b610170610204366004610e7a565b610686565b61021c610217366004610ff8565b610690565b60405190815260200161013f565b61019b6106d5565b61021c60075481565b6006546001600160a01b0316610170565b6101506106e8565b61019b610262366004611055565b6106f7565b61019b610275366004611090565b610702565b610150610288366004610e7a565b61071a565b61013361029b36600461110b565b6107c1565b61019b6102ae366004610ff8565b6107ee565b5f6001600160e01b031982166380ac58cd60e01b14806102e357506001600160e01b03198216635b5e139f60e01b145b806102fe57506301ffc9a760e01b6001600160e01b03198316145b92915050565b60605f805461031290611137565b80601f016020809104026020016040519081016040528092919081815260200182805461033e90611137565b80156103895780601f1061036057610100808354040283529160200191610389565b820191905f5260205f20905b81548152906001019060200180831161036c57829003601f168201915b5050505050905090565b5f61039d8261082b565b505f828152600460205260409020546001600160a01b03166102fe565b6103c5828233610863565b5050565b6001600160a01b0382166103f757604051633250574960e11b81525f60048201526024015b60405180910390fd5b5f610403838333610870565b9050836001600160a01b0316816001600160a01b031614610451576040516364283d7b60e01b81526001600160a01b03808616600483015260248201849052821660448201526064016103ee565b50505050565b336001600160a01b038316146104bb5760405162461bcd60e51b815260206004820152602360248201527f596f752063616e206f6e6c79206d696e7420626f6f6b7320746f20796f75727360448201526232b63360e91b60648201526084016103ee565b6007546104c88382610962565b5f8181526008602052604090206104df83826111b3565b50826001600160a01b0316817fe4f3dbba5861d0b4a44c69a239e141487660e0426a5dae0840263d801fbab9e18460405161051a9190610e68565b60405180910390a360078054905f6105318361126e565b9190505550505050565b61055583838360405180602001604052805f815250610702565b505050565b60605f61056683610690565b90505f8167ffffffffffffffff81111561058257610582610f0d565b6040519080825280602002602001820160405280156105ab578160200160208202803683370190505b5090505f805b600754811080156105c157508382105b1561067c576040516331a9108f60e11b8152600481018290523090636352211e90602401602060405180830381865afa92505050801561061e575060408051601f3d908101601f1916820190925261061b91810190611292565b60015b1561066a57866001600160a01b0316816001600160a01b031603610668578184848151811061064f5761064f6112ad565b6020908102919091010152826106648161126e565b9350505b505b806106748161126e565b9150506105b1565b5090949350505050565b5f6102fe8261082b565b5f6001600160a01b0382166106ba576040516322718ad960e21b81525f60048201526024016103ee565b506001600160a01b03165f9081526003602052604090205490565b6106dd61097b565b6106e65f6109a8565b565b60606001805461031290611137565b6103c53383836109f9565b61070d8484846103c9565b6104513385858585610a97565b60606107258261082b565b505f828152600860205260409020805461073e90611137565b80601f016020809104026020016040519081016040528092919081815260200182805461076a90611137565b80156107b55780601f1061078c576101008083540402835291602001916107b5565b820191905f5260205f20905b81548152906001019060200180831161079857829003601f168201915b50505050509050919050565b6001600160a01b039182165f90815260056020908152604080832093909416825291909152205460ff1690565b6107f661097b565b6001600160a01b03811661081f57604051631e4fbdf760e01b81525f60048201526024016103ee565b610828816109a8565b50565b5f818152600260205260408120546001600160a01b0316806102fe57604051637e27328960e01b8152600481018490526024016103ee565b6105558383836001610bbf565b5f828152600260205260408120546001600160a01b039081169083161561089c5761089c818486610cc3565b6001600160a01b038116156108d6576108b75f855f5f610bbf565b6001600160a01b0381165f90815260036020526040902080545f190190555b6001600160a01b03851615610904576001600160a01b0385165f908152600360205260409020805460010190555b5f8481526002602052604080822080546001600160a01b0319166001600160a01b0389811691821790925591518793918516917fddf252ad1be2c89b69c2b068fc378daa952ba7f163c4a11628f55a4df523b3ef91a4949350505050565b6103c5828260405180602001604052805f815250610d27565b6006546001600160a01b031633146106e65760405163118cdaa760e01b81523360048201526024016103ee565b600680546001600160a01b038381166001600160a01b0319831681179093556040519116919082907f8be0079c531659141344cd1fd0a4f28419497f9722a3daafe3b4186f6b6457e0905f90a35050565b6001600160a01b038216610a2b57604051630b61174360e31b81526001600160a01b03831660048201526024016103ee565b6001600160a01b038381165f81815260056020908152604080832094871680845294825291829020805460ff191686151590811790915591519182527f17307eab39ab6107e8899845ad3d59bd9653f200f220920489ca2b5937696c31910160405180910390a3505050565b6001600160a01b0383163b15610bb857604051630a85bd0160e11b81526001600160a01b0384169063150b7a0290610ad99088908890879087906004016112c1565b6020604051808303815f875af1925050508015610b13575060408051601f3d908101601f19168201909252610b10918101906112fd565b60015b610b7a573d808015610b40576040519150601f19603f3d011682016040523d82523d5f602084013e610b45565b606091505b5080515f03610b7257604051633250574960e11b81526001600160a01b03851660048201526024016103ee565b805160208201fd5b6001600160e01b03198116630a85bd0160e11b14610bb657604051633250574960e11b81526001600160a01b03851660048201526024016103ee565b505b5050505050565b8080610bd357506001600160a01b03821615155b15610c94575f610be28461082b565b90506001600160a01b03831615801590610c0e5750826001600160a01b0316816001600160a01b031614155b8015610c215750610c1f81846107c1565b155b15610c4a5760405163a9fbf51f60e01b81526001600160a01b03841660048201526024016103ee565b8115610c925783856001600160a01b0316826001600160a01b03167f8c5be1e5ebec7d5bd14f71427d1e84f3dd0314c0f7b2291e5b200ac8c7c3b92560405160405180910390a45b505b50505f90815260046020526040902080546001600160a01b0319166001600160a01b0392909216919091179055565b610cce838383610d3e565b610555576001600160a01b038316610cfc57604051637e27328960e01b8152600481018290526024016103ee565b60405163177e802f60e01b81526001600160a01b0383166004820152602481018290526044016103ee565b610d318383610da2565b610555335f858585610a97565b5f6001600160a01b03831615801590610d9a5750826001600160a01b0316846001600160a01b03161480610d775750610d7784846107c1565b80610d9a57505f828152600460205260409020546001600160a01b038481169116145b949350505050565b6001600160a01b038216610dcb57604051633250574960e11b81525f60048201526024016103ee565b5f610dd783835f610870565b90506001600160a01b03811615610555576040516339e3563760e11b81525f60048201526024016103ee565b6001600160e01b031981168114610828575f5ffd5b5f60208284031215610e28575f5ffd5b8135610e3381610e03565b9392505050565b5f81518084528060208401602086015e5f602082860101526020601f19601f83011685010191505092915050565b602081525f610e336020830184610e3a565b5f60208284031215610e8a575f5ffd5b5035919050565b6001600160a01b0381168114610828575f5ffd5b5f5f60408385031215610eb6575f5ffd5b8235610ec181610e91565b946020939093013593505050565b5f5f5f60608486031215610ee1575f5ffd5b8335610eec81610e91565b92506020840135610efc81610e91565b929592945050506040919091013590565b634e487b7160e01b5f52604160045260245ffd5b5f5f67ffffffffffffffff841115610f3b57610f3b610f0d565b50604051601f19601f85018116603f0116810181811067ffffffffffffffff82111715610f6a57610f6a610f0d565b604052838152905080828401851015610f81575f5ffd5b838360208301375f60208583010152509392505050565b5f5f60408385031215610fa9575f5ffd5b8235610fb481610e91565b9150602083013567ffffffffffffffff811115610fcf575f5ffd5b8301601f81018513610fdf575f5ffd5b610fee85823560208401610f21565b9150509250929050565b5f60208284031215611008575f5ffd5b8135610e3381610e91565b602080825282518282018190525f918401906040840190835b8181101561104a57835183526020938401939092019160010161102c565b509095945050505050565b5f5f60408385031215611066575f5ffd5b823561107181610e91565b915060208301358015158114611085575f5ffd5b809150509250929050565b5f5f5f5f608085870312156110a3575f5ffd5b84356110ae81610e91565b935060208501356110be81610e91565b925060408501359150606085013567ffffffffffffffff8111156110e0575f5ffd5b8501601f810187136110f0575f5ffd5b6110ff87823560208401610f21565b91505092959194509250565b5f5f6040838503121561111c575f5ffd5b823561112781610e91565b9150602083013561108581610e91565b600181811c9082168061114b57607f821691505b60208210810361116957634e487b7160e01b5f52602260045260245ffd5b50919050565b601f82111561055557805f5260205f20601f840160051c810160208510156111945750805b601f840160051c820191505b81811015610bb8575f81556001016111a0565b815167ffffffffffffffff8111156111cd576111cd610f0d565b6111e1816111db8454611137565b8461116f565b6020601f821160018114611213575f83156111fc5750848201515b5f19600385901b1c1916600184901b178455610bb8565b5f84815260208120601f198516915b828110156112425787850151825560209485019460019092019101611222565b508482101561125f57868401515f19600387901b60f8161c191681555b50505050600190811b01905550565b5f6001820161128b57634e487b7160e01b5f52601160045260245ffd5b5060010190565b5f602082840312156112a2575f5ffd5b8151610e3381610e91565b634e487b7160e01b5f52603260045260245ffd5b6001600160a01b03858116825284166020820152604081018390526080606082018190525f906112f390830184610e3a565b9695505050505050565b5f6020828403121561130d575f5ffd5b8151610e3381610e0356fea2646970667358221220bf6f6946412dd392bce243887667d802ebd5b15d721f3f339cbdd4dec969f82f64736f6c634300081e0033",
  "linkReferences": {},
  "deployedLinkReferences": {},
  "immutableReferences": {},
  "inputSourceName": "project/contracts/BookNFT.sol",
  "buildInfoId": "solc-0_8_30-86bb6bec39e9d7310f557a7074d73c452e47d1f2"
}